{
  "contractName": "MedicalRecord",
  "abi": [
    {
      "anonymous": false,
      "inputs": [
        {
          "indexed": true,
          "internalType": "uint256",
          "name": "appointmentId",
          "type": "uint256"
        }
      ],
      "name": "AppointmentConfirmed",
      "type": "event"
    },
    {
      "anonymous": false,
      "inputs": [
        {
          "indexed": true,
          "internalType": "address",
          "name": "patient",
          "type": "address"
        },
        {
          "indexed": true,
          "internalType": "address",
          "name": "doctor",
          "type": "address"
        },
        {
          "indexed": false,
          "internalType": "string",
          "name": "timestamp",
          "type": "string"
        }
      ],
      "name": "AppointmentRequested",
      "type": "event"
    },
    {
      "anonymous": false,
      "inputs": [
        {
          "indexed": true,
          "internalType": "address",
          "name": "doctor",
          "type": "address"
        }
      ],
      "name": "DoctorRegistered",
      "type": "event"
    },
    {
      "anonymous": false,
      "inputs": [
        {
          "indexed": true,
          "internalType": "address",
          "name": "patient",
          "type": "address"
        }
      ],
      "name": "PatientRegistered",
      "type": "event"
    },
    {
      "anonymous": false,
      "inputs": [
        {
          "indexed": true,
          "internalType": "address",
          "name": "patient",
          "type": "address"
        },
        {
          "indexed": false,
          "internalType": "string",
          "name": "ipfsHash",
          "type": "string"
        },
        {
          "indexed": true,
          "internalType": "address",
          "name": "doctor",
          "type": "address"
        },
        {
          "indexed": false,
          "internalType": "string",
          "name": "timestamp",
          "type": "string"
        }
      ],
      "name": "RecordAdded",
      "type": "event"
    },
    {
      "constant": true,
      "inputs": [
        {
          "internalType": "uint256",
          "name": "",
          "type": "uint256"
        }
      ],
      "name": "appointments",
      "outputs": [
        {
          "internalType": "address",
          "name": "patient",
          "type": "address"
        },
        {
          "internalType": "address",
          "name": "doctor",
          "type": "address"
        },
        {
          "internalType": "string",
          "name": "timestamp",
          "type": "string"
        },
        {
          "internalType": "bool",
          "name": "confirmed",
          "type": "bool"
        }
      ],
      "payable": false,
      "stateMutability": "view",
      "type": "function"
    },
    {
      "constant": true,
      "inputs": [
        {
          "internalType": "address",
          "name": "",
          "type": "address"
        }
      ],
      "name": "doctors",
      "outputs": [
        {
          "internalType": "bool",
          "name": "",
          "type": "bool"
        }
      ],
      "payable": false,
      "stateMutability": "view",
      "type": "function"
    },
    {
      "constant": true,
      "inputs": [],
      "name": "name",
      "outputs": [
        {
          "internalType": "string",
          "name": "",
          "type": "string"
        }
      ],
      "payable": false,
      "stateMutability": "view",
      "type": "function"
    },
    {
      "constant": true,
      "inputs": [
        {
          "internalType": "address",
          "name": "",
          "type": "address"
        },
        {
          "internalType": "uint256",
          "name": "",
          "type": "uint256"
        }
      ],
      "name": "patientRecords",
      "outputs": [
        {
          "internalType": "string",
          "name": "ipfsHash",
          "type": "string"
        },
        {
          "internalType": "address",
          "name": "doctor",
          "type": "address"
        },
        {
          "internalType": "string",
          "name": "timestamp",
          "type": "string"
        }
      ],
      "payable": false,
      "stateMutability": "view",
      "type": "function"
    },
    {
      "constant": true,
      "inputs": [
        {
          "internalType": "address",
          "name": "",
          "type": "address"
        }
      ],
      "name": "patients",
      "outputs": [
        {
          "internalType": "bool",
          "name": "",
          "type": "bool"
        }
      ],
      "payable": false,
      "stateMutability": "view",
      "type": "function"
    },
    {
      "constant": false,
      "inputs": [
        {
          "internalType": "address",
          "name": "_doctor",
          "type": "address"
        }
      ],
      "name": "addDoctor",
      "outputs": [],
      "payable": false,
      "stateMutability": "nonpayable",
      "type": "function"
    },
    {
      "constant": false,
      "inputs": [
        {
          "internalType": "address",
          "name": "_patient",
          "type": "address"
        }
      ],
      "name": "addPatient",
      "outputs": [],
      "payable": false,
      "stateMutability": "nonpayable",
      "type": "function"
    },
    {
      "constant": false,
      "inputs": [
        {
          "internalType": "address",
          "name": "_patient",
          "type": "address"
        },
        {
          "internalType": "string",
          "name": "_ipfsHash",
          "type": "string"
        },
        {
          "internalType": "string",
          "name": "_timestamp",
          "type": "string"
        }
      ],
      "name": "addRecord",
      "outputs": [],
      "payable": false,
      "stateMutability": "nonpayable",
      "type": "function"
    },
    {
      "constant": true,
      "inputs": [
        {
          "internalType": "address",
          "name": "_patient",
          "type": "address"
        }
      ],
      "name": "getRecords",
      "outputs": [
        {
          "components": [
            {
              "internalType": "string",
              "name": "ipfsHash",
              "type": "string"
            },
            {
              "internalType": "address",
              "name": "doctor",
              "type": "address"
            },
            {
              "internalType": "string",
              "name": "timestamp",
              "type": "string"
            }
          ],
          "internalType": "struct MedicalRecord.Record[]",
          "name": "",
          "type": "tuple[]"
        }
      ],
      "payable": false,
      "stateMutability": "view",
      "type": "function"
    },
    {
      "constant": false,
      "inputs": [
        {
          "internalType": "address",
          "name": "_doctor",
          "type": "address"
        },
        {
          "internalType": "string",
          "name": "_timestamp",
          "type": "string"
        }
      ],
      "name": "requestAppointment",
      "outputs": [],
      "payable": false,
      "stateMutability": "nonpayable",
      "type": "function"
    },
    {
      "constant": false,
      "inputs": [
        {
          "internalType": "uint256",
          "name": "_appointmentId",
          "type": "uint256"
        }
      ],
      "name": "confirmAppointment",
      "outputs": [],
      "payable": false,
      "stateMutability": "nonpayable",
      "type": "function"
    },
    {
      "constant": true,
      "inputs": [],
      "name": "getAppointments",
      "outputs": [
        {
          "components": [
            {
              "internalType": "address",
              "name": "patient",
              "type": "address"
            },
            {
              "internalType": "address",
              "name": "doctor",
              "type": "address"
            },
            {
              "internalType": "string",
              "name": "timestamp",
              "type": "string"
            },
            {
              "internalType": "bool",
              "name": "confirmed",
              "type": "bool"
            }
          ],
          "internalType": "struct MedicalRecord.Appointment[]",
          "name": "",
          "type": "tuple[]"
        }
      ],
      "payable": false,
      "stateMutability": "view",
      "type": "function"
    }
  ],
  "bytecode": "0x608060405234801561001057600080fd5b50611c6c806100206000396000f3fe608060405234801561001057600080fd5b50600436106100b45760003560e01c806394f0df611161007157806394f0df611461018e57806396b80d08146101c0578063a0076e84146101de578063a9583c221461020e578063cefead951461023e578063d47b41d51461025a576100b4565b806306fdde03146100b95780630869cfbc146100d757806312dc90131461010757806320cb5f611461013a5780634780468f146101565780636d263ceb14610172575b600080fd5b6100c1610276565b6040516100ce919061191d565b60405180910390f35b6100f160048036036100ec91908101906112ec565b610314565b6040516100fe9190611902565b60405180910390f35b610121600480360361011c9190810190611424565b610334565b6040516101319493929190611872565b60405180910390f35b610154600480360361014f9190810190611315565b610456565b005b610170600480360361016b91908101906112ec565b610729565b005b61018c600480360361018791908101906112ec565b6107c7565b005b6101a860048036036101a391908101906113e8565b610865565b6040516101b793929190611998565b60405180910390f35b6101c86109f9565b6040516101d591906118be565b60405180910390f35b6101f860048036036101f391908101906112ec565b610bc1565b60405161020591906118e0565b60405180910390f35b610228600480360361022391908101906112ec565b610df9565b6040516102359190611902565b60405180910390f35b61025860048036036102539190810190611424565b610e19565b005b610274600480360361026f9190810190611369565b610fab565b005b60008054600181600116156101000203166002900480601f01602080910402602001604051908101604052809291908181526020018280546001816001161561010002031660029004801561030c5780601f106102e15761010080835404028352916020019161030c565b820191906000526020600020905b8154815290600101906020018083116102ef57829003601f168201915b505050505081565b60036020528060005260406000206000915054906101000a900460ff1681565b6004818154811061034157fe5b90600052602060002090600402016000915090508060000160009054906101000a900473ffffffffffffffffffffffffffffffffffffffff16908060010160009054906101000a900473ffffffffffffffffffffffffffffffffffffffff1690806002018054600181600116156101000203166002900480601f0160208091040260200160405190810160405280929190818152602001828054600181600116156101000203166002900480156104395780601f1061040e57610100808354040283529160200191610439565b820191906000526020600020905b81548152906001019060200180831161041c57829003601f168201915b5050505050908060030160009054906101000a900460ff16905084565b60011515600360003373ffffffffffffffffffffffffffffffffffffffff1673ffffffffffffffffffffffffffffffffffffffff16815260200190815260200160002060009054906101000a900460ff161515146104e9576040517f08c379a00000000000000000000000000000000000000000000000000000000081526004016104e0906119dd565b60405180910390fd5b600260008373ffffffffffffffffffffffffffffffffffffffff1673ffffffffffffffffffffffffffffffffffffffff16815260200190815260200160002060009054906101000a900460ff16610575576040517f08c379a000000000000000000000000000000000000000000000000000000000815260040161056c906119fd565b60405180910390fd5b600460405180608001604052803373ffffffffffffffffffffffffffffffffffffffff1681526020018473ffffffffffffffffffffffffffffffffffffffff168152602001838152602001600015158152509080600181540180825580915050906001820390600052602060002090600402016000909192909190915060008201518160000160006101000a81548173ffffffffffffffffffffffffffffffffffffffff021916908373ffffffffffffffffffffffffffffffffffffffff16021790555060208201518160010160006101000a81548173ffffffffffffffffffffffffffffffffffffffff021916908373ffffffffffffffffffffffffffffffffffffffff160217905550604082015181600201908051906020019061069c9291906111c9565b5060608201518160030160006101000a81548160ff0219169083151502179055505050508173ffffffffffffffffffffffffffffffffffffffff163373ffffffffffffffffffffffffffffffffffffffff167f3d9000cbaf65a6931bc7e7e704902e0c0dc27fd8820046a91e2184c3b3187e1c8360405161071d919061193f565b60405180910390a35050565b6001600260008373ffffffffffffffffffffffffffffffffffffffff1673ffffffffffffffffffffffffffffffffffffffff16815260200190815260200160002060006101000a81548160ff0219169083151502179055508073ffffffffffffffffffffffffffffffffffffffff167f2dc8105a7545248d0e354c4c6b02fb583071cc719fb4bef1ca74d72d475570bc60405160405180910390a250565b6001600360008373ffffffffffffffffffffffffffffffffffffffff1673ffffffffffffffffffffffffffffffffffffffff16815260200190815260200160002060006101000a81548160ff0219169083151502179055508073ffffffffffffffffffffffffffffffffffffffff167fc9fa2003fca4ce0dfc8cb0deae32266b715536df6685365b05b5be96ede8e49c60405160405180910390a250565b6001602052816000526040600020818154811061087e57fe5b906000526020600020906003020160009150915050806000018054600181600116156101000203166002900480601f01602080910402602001604051908101604052809291908181526020018280546001816001161561010002031660029004801561092b5780601f106109005761010080835404028352916020019161092b565b820191906000526020600020905b81548152906001019060200180831161090e57829003601f168201915b5050505050908060010160009054906101000a900473ffffffffffffffffffffffffffffffffffffffff1690806002018054600181600116156101000203166002900480601f0160208091040260200160405190810160405280929190818152602001828054600181600116156101000203166002900480156109ef5780601f106109c4576101008083540402835291602001916109ef565b820191906000526020600020905b8154815290600101906020018083116109d257829003601f168201915b5050505050905083565b60606004805480602002602001604051908101604052809291908181526020016000905b82821015610bb857838290600052602060002090600402016040518060800160405290816000820160009054906101000a900473ffffffffffffffffffffffffffffffffffffffff1673ffffffffffffffffffffffffffffffffffffffff1673ffffffffffffffffffffffffffffffffffffffff1681526020016001820160009054906101000a900473ffffffffffffffffffffffffffffffffffffffff1673ffffffffffffffffffffffffffffffffffffffff1673ffffffffffffffffffffffffffffffffffffffff168152602001600282018054600181600116156101000203166002900480601f016020809104026020016040519081016040528092919081815260200182805460018160011615610100020316600290048015610b855780601f10610b5a57610100808354040283529160200191610b85565b820191906000526020600020905b815481529060010190602001808311610b6857829003601f168201915b505050505081526020016003820160009054906101000a900460ff16151515158152505081526020019060010190610a1d565b50505050905090565b6060600160008373ffffffffffffffffffffffffffffffffffffffff1673ffffffffffffffffffffffffffffffffffffffff168152602001908152602001600020805480602002602001604051908101604052809291908181526020016000905b82821015610dee5783829060005260206000209060030201604051806060016040529081600082018054600181600116156101000203166002900480601f016020809104026020016040519081016040528092919081815260200182805460018160011615610100020316600290048015610cde5780601f10610cb357610100808354040283529160200191610cde565b820191906000526020600020905b815481529060010190602001808311610cc157829003601f168201915b505050505081526020016001820160009054906101000a900473ffffffffffffffffffffffffffffffffffffffff1673ffffffffffffffffffffffffffffffffffffffff1673ffffffffffffffffffffffffffffffffffffffff168152602001600282018054600181600116156101000203166002900480601f016020809104026020016040519081016040528092919081815260200182805460018160011615610100020316600290048015610dd65780601f10610dab57610100808354040283529160200191610dd6565b820191906000526020600020905b815481529060010190602001808311610db957829003601f168201915b50505050508152505081526020019060010190610c22565b505050509050919050565b60026020528060005260406000206000915054906101000a900460ff1681565b60011515600260003373ffffffffffffffffffffffffffffffffffffffff1673ffffffffffffffffffffffffffffffffffffffff16815260200190815260200160002060009054906101000a900460ff16151514610eac576040517f08c379a0000000000000000000000000000000000000000000000000000000008152600401610ea390611a3d565b60405180910390fd5b600060048281548110610ebb57fe5b906000526020600020906004020190503373ffffffffffffffffffffffffffffffffffffffff168160010160009054906101000a900473ffffffffffffffffffffffffffffffffffffffff1673ffffffffffffffffffffffffffffffffffffffff1614610f5d576040517f08c379a0000000000000000000000000000000000000000000000000000000008152600401610f5490611a1d565b60405180910390fd5b60018160030160006101000a81548160ff021916908315150217905550817f31b574c71982839b50b1f27014bd878e5d09df2523fd4ea5d288148a7c6479d960405160405180910390a25050565b60011515600260003373ffffffffffffffffffffffffffffffffffffffff1673ffffffffffffffffffffffffffffffffffffffff16815260200190815260200160002060009054906101000a900460ff1615151461103e576040517f08c379a000000000000000000000000000000000000000000000000000000000815260040161103590611a3d565b60405180910390fd5b600160008473ffffffffffffffffffffffffffffffffffffffff1673ffffffffffffffffffffffffffffffffffffffff16815260200190815260200160002060405180606001604052808481526020013373ffffffffffffffffffffffffffffffffffffffff168152602001838152509080600181540180825580915050906001820390600052602060002090600302016000909192909190915060008201518160000190805190602001906110f59291906111c9565b5060208201518160010160006101000a81548173ffffffffffffffffffffffffffffffffffffffff021916908373ffffffffffffffffffffffffffffffffffffffff16021790555060408201518160020190805190602001906111599291906111c9565b505050503373ffffffffffffffffffffffffffffffffffffffff168373ffffffffffffffffffffffffffffffffffffffff167f3c89f66b153cff71c272d3906e156a8543980625c3f1d645e4ca30258aabf71284846040516111bc929190611961565b60405180910390a3505050565b828054600181600116156101000203166002900490600052602060002090601f016020900481019282601f1061120a57805160ff1916838001178555611238565b82800160010185558215611238579182015b8281111561123757825182559160200191906001019061121c565b5b5090506112459190611249565b5090565b61126b91905b8082111561126757600081600090555060010161124f565b5090565b90565b60008135905061127d81611bfb565b92915050565b600082601f83011261129457600080fd5b81356112a76112a282611a8a565b611a5d565b915080825260208301602083018583830111156112c357600080fd5b6112ce838284611ba8565b50505092915050565b6000813590506112e681611c12565b92915050565b6000602082840312156112fe57600080fd5b600061130c8482850161126e565b91505092915050565b6000806040838503121561132857600080fd5b60006113368582860161126e565b925050602083013567ffffffffffffffff81111561135357600080fd5b61135f85828601611283565b9150509250929050565b60008060006060848603121561137e57600080fd5b600061138c8682870161126e565b935050602084013567ffffffffffffffff8111156113a957600080fd5b6113b586828701611283565b925050604084013567ffffffffffffffff8111156113d257600080fd5b6113de86828701611283565b9150509250925092565b600080604083850312156113fb57600080fd5b60006114098582860161126e565b925050602061141a858286016112d7565b9150509250929050565b60006020828403121561143657600080fd5b6000611444848285016112d7565b91505092915050565b600061145983836117b8565b905092915050565b600061146d838361181b565b905092915050565b61147e81611b60565b82525050565b61148d81611b60565b82525050565b600061149e82611ad6565b6114a88185611b1c565b9350836020820285016114ba85611ab6565b8060005b858110156114f657848403895281516114d7858261144d565b94506114e283611b02565b925060208a019950506001810190506114be565b50829750879550505050505092915050565b600061151382611ae1565b61151d8185611b2d565b93508360208202850161152f85611ac6565b8060005b8581101561156b578484038952815161154c8582611461565b945061155783611b0f565b925060208a01995050600181019050611533565b50829750879550505050505092915050565b61158681611b72565b82525050565b61159581611b72565b82525050565b60006115a682611af7565b6115b08185611b4f565b93506115c0818560208601611bb7565b6115c981611bea565b840191505092915050565b60006115df82611aec565b6115e98185611b3e565b93506115f9818560208601611bb7565b61160281611bea565b840191505092915050565b600061161882611aec565b6116228185611b4f565b9350611632818560208601611bb7565b61163b81611bea565b840191505092915050565b6000611653602583611b4f565b91507f4f6e6c792070617469656e74732063616e20706572666f726d2074686973206160008301527f6374696f6e0000000000000000000000000000000000000000000000000000006020830152604082019050919050565b60006116b9601683611b4f565b91507f496e76616c696420646f63746f722061646472657373000000000000000000006000830152602082019050919050565b60006116f9603583611b4f565b91507f4f6e6c79207468652061737369676e656420646f63746f722063616e20636f6e60008301527f6669726d2074686973206170706f696e746d656e7400000000000000000000006020830152604082019050919050565b600061175f602483611b4f565b91507f4f6e6c7920646f63746f72732063616e20706572666f726d207468697320616360008301527f74696f6e000000000000000000000000000000000000000000000000000000006020830152604082019050919050565b60006080830160008301516117d06000860182611475565b5060208301516117e36020860182611475565b50604083015184820360408601526117fb82826115d4565b9150506060830151611810606086018261157d565b508091505092915050565b6000606083016000830151848203600086015261183882826115d4565b915050602083015161184d6020860182611475565b506040830151848203604086015261186582826115d4565b9150508091505092915050565b60006080820190506118876000830187611484565b6118946020830186611484565b81810360408301526118a6818561160d565b90506118b5606083018461158c565b95945050505050565b600060208201905081810360008301526118d88184611493565b905092915050565b600060208201905081810360008301526118fa8184611508565b905092915050565b6000602082019050611917600083018461158c565b92915050565b60006020820190508181036000830152611937818461160d565b905092915050565b60006020820190508181036000830152611959818461159b565b905092915050565b6000604082019050818103600083015261197b818561159b565b9050818103602083015261198f818461159b565b90509392505050565b600060608201905081810360008301526119b2818661160d565b90506119c16020830185611484565b81810360408301526119d3818461160d565b9050949350505050565b600060208201905081810360008301526119f681611646565b9050919050565b60006020820190508181036000830152611a16816116ac565b9050919050565b60006020820190508181036000830152611a36816116ec565b9050919050565b60006020820190508181036000830152611a5681611752565b9050919050565b6000604051905081810181811067ffffffffffffffff82111715611a8057600080fd5b8060405250919050565b600067ffffffffffffffff821115611aa157600080fd5b601f19601f8301169050602081019050919050565b6000819050602082019050919050565b6000819050602082019050919050565b600081519050919050565b600081519050919050565b600081519050919050565b600081519050919050565b6000602082019050919050565b6000602082019050919050565b600082825260208201905092915050565b600082825260208201905092915050565b600082825260208201905092915050565b600082825260208201905092915050565b6000611b6b82611b7e565b9050919050565b60008115159050919050565b600073ffffffffffffffffffffffffffffffffffffffff82169050919050565b6000819050919050565b82818337600083830152505050565b60005b83811015611bd5578082015181840152602081019050611bba565b83811115611be4576000848401525b50505050565b6000601f19601f8301169050919050565b611c0481611b60565b8114611c0f57600080fd5b50565b611c1b81611b9e565b8114611c2657600080fd5b5056fea365627a7a723158208637f74e4bcd475ba01df0a6e325cbb495a4db6d10ea838dfd3edc6a5633c4596c6578706572696d656e74616cf564736f6c63430005110040",
  "source": "// SPDX-License-Identifier: MIT\r\npragma experimental ABIEncoderV2;\r\npragma solidity >=0.4.22 <0.9.0;\r\n\r\ncontract MedicalRecord {\r\n    // Estructura para almacenar registros mdicos con hash de IPFS, direccin del doctor y marca de tiempo\r\n    struct Record {\r\n        string ipfsHash;\r\n        address doctor;\r\n        string timestamp;\r\n    }\r\n\r\n    // Estructura para almacenar detalles de citas incluyendo paciente, doctor, marca de tiempo y estado de confirmacin\r\n    struct Appointment {\r\n        address patient;\r\n        address doctor;\r\n        string timestamp;\r\n        bool confirmed;\r\n    }\r\n\r\n    string public name;\r\n\r\n    // Mapeo para almacenar matrices de registros mdicos para cada paciente\r\n    mapping(address => Record[]) public patientRecords;\r\n    // Mapeo para almacenar la lista de doctores aprobados\r\n    mapping(address => bool) public doctors;\r\n    mapping(address => bool) public patients;\r\n    // Matriz para almacenar todas las solicitudes de citas\r\n    Appointment[] public appointments;\r\n\r\n    // Eventos para registrar acciones\r\n    event RecordAdded(address indexed patient, string ipfsHash, address indexed doctor, string timestamp);\r\n    event AppointmentRequested(address indexed patient, address indexed doctor, string timestamp);\r\n    event AppointmentConfirmed(uint indexed appointmentId);\r\n    event DoctorRegistered(address indexed doctor);\r\n    event PatientRegistered(address indexed patient);\r\n\r\n    // Modificador para restringir el acceso solo a doctores aprobados\r\n    modifier onlyDoctor() {\r\n        require(doctors[msg.sender] == true, \"Only doctors can perform this action\");\r\n        _;\r\n    }\r\n    \r\n    modifier onlyPatient() {\r\n        require(patients[msg.sender] == true, \"Only patients can perform this action\");\r\n        _;\r\n    }\r\n    // Funcin para agregar un nuevo doctor a la lista de aprobados\r\n    function addDoctor(address _doctor) public {\r\n        doctors[_doctor] = true;\r\n        emit DoctorRegistered(_doctor);\r\n    }\r\n    \r\n    function addPatient(address _patient) public {\r\n        patients[_patient] = true;\r\n        emit PatientRegistered(_patient);\r\n    }\r\n    // Funcin para que los doctores agreguen un registro mdico para un paciente\r\n    function addRecord(address _patient, string memory _ipfsHash, string memory _timestamp) public onlyDoctor {\r\n        patientRecords[_patient].push(Record(_ipfsHash, msg.sender, _timestamp));\r\n        emit RecordAdded(_patient, _ipfsHash, msg.sender, _timestamp);\r\n    }\r\n\r\n    // Funcin para recuperar todos los registros mdicos de un paciente\r\n    function getRecords(address _patient) public view returns (Record[] memory) {\r\n        return patientRecords[_patient];\r\n    }\r\n\r\n    // Funcin para que los pacientes soliciten una cita con un doctor\r\n    function requestAppointment(address _doctor, string memory _timestamp) public onlyPatient{\r\n        require(doctors[_doctor], \"Invalid doctor address\");\r\n        appointments.push(Appointment(msg.sender, _doctor, _timestamp, false));\r\n        emit AppointmentRequested(msg.sender, _doctor, _timestamp);\r\n    }\r\n    \r\n    // Funcin para que los doctores confirmen una cita\r\n    function confirmAppointment(uint _appointmentId) public onlyDoctor {\r\n        Appointment storage appointment = appointments[_appointmentId];\r\n        require(appointment.doctor == msg.sender, \"Only the assigned doctor can confirm this appointment\");\r\n        appointment.confirmed = true;\r\n        emit AppointmentConfirmed(_appointmentId);\r\n    }\r\n\r\n        \r\n    // Funcin para recuperar todas las citas\r\n    function getAppointments() public view returns (Appointment[] memory) {\r\n        return appointments;\r\n    }\r\n\r\n}\r\n",
  "sourcePath": "D:\\TFG\\src\\contracts\\MedicalRecord.sol",
  "compiler": {
    "name": "solc",
    "version": "0.5.17+commit.d19bba13.Emscripten.clang"
  },
  "schemaVersion": "3.4.16",
  "updatedAt": "2024-08-02T09:27:10.874Z",
  "networkType": "ethereum",
  "devdoc": {
    "methods": {}
  },
  "userdoc": {
    "methods": {}
  }
}