{
  "contractName": "MedicalRecord",
  "abi": [
    {
      "anonymous": false,
      "inputs": [
        {
          "indexed": true,
          "internalType": "uint256",
          "name": "appointmentId",
          "type": "uint256"
        }
      ],
      "name": "AppointmentConfirmed",
      "type": "event"
    },
    {
      "anonymous": false,
      "inputs": [
        {
          "indexed": true,
          "internalType": "address",
          "name": "patient",
          "type": "address"
        },
        {
          "indexed": true,
          "internalType": "address",
          "name": "doctor",
          "type": "address"
        },
        {
          "indexed": false,
          "internalType": "uint256",
          "name": "timestamp",
          "type": "uint256"
        }
      ],
      "name": "AppointmentRequested",
      "type": "event"
    },
    {
      "anonymous": false,
      "inputs": [
        {
          "indexed": true,
          "internalType": "address",
          "name": "patient",
          "type": "address"
        },
        {
          "indexed": false,
          "internalType": "string",
          "name": "ipfsHash",
          "type": "string"
        },
        {
          "indexed": true,
          "internalType": "address",
          "name": "doctor",
          "type": "address"
        },
        {
          "indexed": false,
          "internalType": "uint256",
          "name": "timestamp",
          "type": "uint256"
        }
      ],
      "name": "RecordAdded",
      "type": "event"
    },
    {
      "inputs": [
        {
          "internalType": "uint256",
          "name": "",
          "type": "uint256"
        }
      ],
      "name": "appointments",
      "outputs": [
        {
          "internalType": "address",
          "name": "patient",
          "type": "address"
        },
        {
          "internalType": "address",
          "name": "doctor",
          "type": "address"
        },
        {
          "internalType": "uint256",
          "name": "timestamp",
          "type": "uint256"
        },
        {
          "internalType": "bool",
          "name": "confirmed",
          "type": "bool"
        }
      ],
      "stateMutability": "view",
      "type": "function"
    },
    {
      "inputs": [
        {
          "internalType": "address",
          "name": "",
          "type": "address"
        }
      ],
      "name": "doctors",
      "outputs": [
        {
          "internalType": "bool",
          "name": "",
          "type": "bool"
        }
      ],
      "stateMutability": "view",
      "type": "function"
    },
    {
      "inputs": [
        {
          "internalType": "address",
          "name": "",
          "type": "address"
        },
        {
          "internalType": "uint256",
          "name": "",
          "type": "uint256"
        }
      ],
      "name": "patientRecords",
      "outputs": [
        {
          "internalType": "string",
          "name": "ipfsHash",
          "type": "string"
        },
        {
          "internalType": "address",
          "name": "doctor",
          "type": "address"
        },
        {
          "internalType": "uint256",
          "name": "timestamp",
          "type": "uint256"
        }
      ],
      "stateMutability": "view",
      "type": "function"
    },
    {
      "inputs": [
        {
          "internalType": "address",
          "name": "_doctor",
          "type": "address"
        }
      ],
      "name": "addDoctor",
      "outputs": [],
      "stateMutability": "nonpayable",
      "type": "function"
    },
    {
      "inputs": [
        {
          "internalType": "address",
          "name": "_patient",
          "type": "address"
        },
        {
          "internalType": "string",
          "name": "_ipfsHash",
          "type": "string"
        }
      ],
      "name": "addRecord",
      "outputs": [],
      "stateMutability": "nonpayable",
      "type": "function"
    },
    {
      "inputs": [
        {
          "internalType": "address",
          "name": "_patient",
          "type": "address"
        }
      ],
      "name": "getRecords",
      "outputs": [
        {
          "components": [
            {
              "internalType": "string",
              "name": "ipfsHash",
              "type": "string"
            },
            {
              "internalType": "address",
              "name": "doctor",
              "type": "address"
            },
            {
              "internalType": "uint256",
              "name": "timestamp",
              "type": "uint256"
            }
          ],
          "internalType": "struct MedicalRecord.Record[]",
          "name": "",
          "type": "tuple[]"
        }
      ],
      "stateMutability": "view",
      "type": "function"
    },
    {
      "inputs": [
        {
          "internalType": "address",
          "name": "_doctor",
          "type": "address"
        },
        {
          "internalType": "uint256",
          "name": "_timestamp",
          "type": "uint256"
        }
      ],
      "name": "requestAppointment",
      "outputs": [],
      "stateMutability": "nonpayable",
      "type": "function"
    },
    {
      "inputs": [
        {
          "internalType": "uint256",
          "name": "_appointmentId",
          "type": "uint256"
        }
      ],
      "name": "confirmAppointment",
      "outputs": [],
      "stateMutability": "nonpayable",
      "type": "function"
    },
    {
      "inputs": [],
      "name": "getAppointments",
      "outputs": [
        {
          "components": [
            {
              "internalType": "address",
              "name": "patient",
              "type": "address"
            },
            {
              "internalType": "address",
              "name": "doctor",
              "type": "address"
            },
            {
              "internalType": "uint256",
              "name": "timestamp",
              "type": "uint256"
            },
            {
              "internalType": "bool",
              "name": "confirmed",
              "type": "bool"
            }
          ],
          "internalType": "struct MedicalRecord.Appointment[]",
          "name": "",
          "type": "tuple[]"
        }
      ],
      "stateMutability": "view",
      "type": "function"
    }
  ],
  "bytecode": "0x6080604052348015600e575f80fd5b506117be8061001c5f395ff3fe608060405234801561000f575f80fd5b5060043610610091575f3560e01c806396b80d081161006457806396b80d0814610132578063a0076e8414610150578063a9583c2214610180578063cda8fd6c146101b0578063cefead95146101cc57610091565b806312dc9013146100955780634780468f146100c857806366858ec8146100e457806394f0df6114610100575b5f80fd5b6100af60048036038101906100aa9190610c5b565b6101e8565b6040516100bf9493929190610cee565b60405180910390f35b6100e260048036038101906100dd9190610d5b565b61026d565b005b6100fe60048036038101906100f99190610ec2565b6102c4565b005b61011a60048036038101906101159190610f1c565b6104b8565b60405161012993929190610fba565b60405180910390f35b61013a61059c565b604051610147919061111e565b60405180910390f35b61016a60048036038101906101659190610d5b565b6106c5565b604051610177919061128e565b60405180910390f35b61019a60048036038101906101959190610d5b565b61084b565b6040516101a791906112ae565b60405180910390f35b6101ca60048036038101906101c59190610f1c565b610868565b005b6101e660048036038101906101e19190610c5b565b610a86565b005b600281815481106101f7575f80fd5b905f5260205f2090600402015f91509050805f015f9054906101000a900473ffffffffffffffffffffffffffffffffffffffff1690806001015f9054906101000a900473ffffffffffffffffffffffffffffffffffffffff1690806002015490806003015f9054906101000a900460ff16905084565b6001805f8373ffffffffffffffffffffffffffffffffffffffff1673ffffffffffffffffffffffffffffffffffffffff1681526020019081526020015f205f6101000a81548160ff02191690831515021790555050565b6001151560015f3373ffffffffffffffffffffffffffffffffffffffff1673ffffffffffffffffffffffffffffffffffffffff1681526020019081526020015f205f9054906101000a900460ff16151514610354576040517f08c379a000000000000000000000000000000000000000000000000000000000815260040161034b90611337565b60405180910390fd5b5f808373ffffffffffffffffffffffffffffffffffffffff1673ffffffffffffffffffffffffffffffffffffffff1681526020019081526020015f2060405180606001604052808381526020013373ffffffffffffffffffffffffffffffffffffffff16815260200142815250908060018154018082558091505060019003905f5260205f2090600302015f909190919091505f820151815f0190816103fa919061154f565b506020820151816001015f6101000a81548173ffffffffffffffffffffffffffffffffffffffff021916908373ffffffffffffffffffffffffffffffffffffffff1602179055506040820151816002015550503373ffffffffffffffffffffffffffffffffffffffff168273ffffffffffffffffffffffffffffffffffffffff167f6c6b2c1c4ceb9a4eecc641ca6c44571028b04ab815d0268b3b184af15e5e59d683426040516104ac92919061161e565b60405180910390a35050565b5f602052815f5260405f2081815481106104d0575f80fd5b905f5260205f2090600302015f9150915050805f0180546104f090611382565b80601f016020809104026020016040519081016040528092919081815260200182805461051c90611382565b80156105675780601f1061053e57610100808354040283529160200191610567565b820191905f5260205f20905b81548152906001019060200180831161054a57829003601f168201915b505050505090806001015f9054906101000a900473ffffffffffffffffffffffffffffffffffffffff16908060020154905083565b60606002805480602002602001604051908101604052809291908181526020015f905b828210156106bc578382905f5260205f2090600402016040518060800160405290815f82015f9054906101000a900473ffffffffffffffffffffffffffffffffffffffff1673ffffffffffffffffffffffffffffffffffffffff1673ffffffffffffffffffffffffffffffffffffffff168152602001600182015f9054906101000a900473ffffffffffffffffffffffffffffffffffffffff1673ffffffffffffffffffffffffffffffffffffffff1673ffffffffffffffffffffffffffffffffffffffff16815260200160028201548152602001600382015f9054906101000a900460ff161515151581525050815260200190600101906105bf565b50505050905090565b60605f808373ffffffffffffffffffffffffffffffffffffffff1673ffffffffffffffffffffffffffffffffffffffff1681526020019081526020015f20805480602002602001604051908101604052809291908181526020015f905b82821015610840578382905f5260205f2090600302016040518060600160405290815f8201805461075290611382565b80601f016020809104026020016040519081016040528092919081815260200182805461077e90611382565b80156107c95780601f106107a0576101008083540402835291602001916107c9565b820191905f5260205f20905b8154815290600101906020018083116107ac57829003601f168201915b50505050508152602001600182015f9054906101000a900473ffffffffffffffffffffffffffffffffffffffff1673ffffffffffffffffffffffffffffffffffffffff1673ffffffffffffffffffffffffffffffffffffffff16815260200160028201548152505081526020019060010190610722565b505050509050919050565b6001602052805f5260405f205f915054906101000a900460ff1681565b60015f8373ffffffffffffffffffffffffffffffffffffffff1673ffffffffffffffffffffffffffffffffffffffff1681526020019081526020015f205f9054906101000a900460ff166108f1576040517f08c379a00000000000000000000000000000000000000000000000000000000081526004016108e890611696565b60405180910390fd5b600260405180608001604052803373ffffffffffffffffffffffffffffffffffffffff1681526020018473ffffffffffffffffffffffffffffffffffffffff1681526020018381526020015f1515815250908060018154018082558091505060019003905f5260205f2090600402015f909190919091505f820151815f015f6101000a81548173ffffffffffffffffffffffffffffffffffffffff021916908373ffffffffffffffffffffffffffffffffffffffff1602179055506020820151816001015f6101000a81548173ffffffffffffffffffffffffffffffffffffffff021916908373ffffffffffffffffffffffffffffffffffffffff160217905550604082015181600201556060820151816003015f6101000a81548160ff02191690831515021790555050508173ffffffffffffffffffffffffffffffffffffffff163373ffffffffffffffffffffffffffffffffffffffff167fae69d51bc8da844632053b3de8fd2d3cfa6cc7e7fc2d98ae7c1f2b029596308d83604051610a7a91906116b4565b60405180910390a35050565b6001151560015f3373ffffffffffffffffffffffffffffffffffffffff1673ffffffffffffffffffffffffffffffffffffffff1681526020019081526020015f205f9054906101000a900460ff16151514610b16576040517f08c379a0000000000000000000000000000000000000000000000000000000008152600401610b0d90611337565b60405180910390fd5b5f60028281548110610b2b57610b2a6116cd565b5b905f5260205f20906004020190503373ffffffffffffffffffffffffffffffffffffffff16816001015f9054906101000a900473ffffffffffffffffffffffffffffffffffffffff1673ffffffffffffffffffffffffffffffffffffffff1614610bca576040517f08c379a0000000000000000000000000000000000000000000000000000000008152600401610bc19061176a565b60405180910390fd5b6001816003015f6101000a81548160ff021916908315150217905550817f31b574c71982839b50b1f27014bd878e5d09df2523fd4ea5d288148a7c6479d960405160405180910390a25050565b5f604051905090565b5f80fd5b5f80fd5b5f819050919050565b610c3a81610c28565b8114610c44575f80fd5b50565b5f81359050610c5581610c31565b92915050565b5f60208284031215610c7057610c6f610c20565b5b5f610c7d84828501610c47565b91505092915050565b5f73ffffffffffffffffffffffffffffffffffffffff82169050919050565b5f610caf82610c86565b9050919050565b610cbf81610ca5565b82525050565b610cce81610c28565b82525050565b5f8115159050919050565b610ce881610cd4565b82525050565b5f608082019050610d015f830187610cb6565b610d0e6020830186610cb6565b610d1b6040830185610cc5565b610d286060830184610cdf565b95945050505050565b610d3a81610ca5565b8114610d44575f80fd5b50565b5f81359050610d5581610d31565b92915050565b5f60208284031215610d7057610d6f610c20565b5b5f610d7d84828501610d47565b91505092915050565b5f80fd5b5f80fd5b5f601f19601f8301169050919050565b7f4e487b71000000000000000000000000000000000000000000000000000000005f52604160045260245ffd5b610dd482610d8e565b810181811067ffffffffffffffff82111715610df357610df2610d9e565b5b80604052505050565b5f610e05610c17565b9050610e118282610dcb565b919050565b5f67ffffffffffffffff821115610e3057610e2f610d9e565b5b610e3982610d8e565b9050602081019050919050565b828183375f83830152505050565b5f610e66610e6184610e16565b610dfc565b905082815260208101848484011115610e8257610e81610d8a565b5b610e8d848285610e46565b509392505050565b5f82601f830112610ea957610ea8610d86565b5b8135610eb9848260208601610e54565b91505092915050565b5f8060408385031215610ed857610ed7610c20565b5b5f610ee585828601610d47565b925050602083013567ffffffffffffffff811115610f0657610f05610c24565b5b610f1285828601610e95565b9150509250929050565b5f8060408385031215610f3257610f31610c20565b5b5f610f3f85828601610d47565b9250506020610f5085828601610c47565b9150509250929050565b5f81519050919050565b5f82825260208201905092915050565b8281835e5f83830152505050565b5f610f8c82610f5a565b610f968185610f64565b9350610fa6818560208601610f74565b610faf81610d8e565b840191505092915050565b5f6060820190508181035f830152610fd28186610f82565b9050610fe16020830185610cb6565b610fee6040830184610cc5565b949350505050565b5f81519050919050565b5f82825260208201905092915050565b5f819050602082019050919050565b61102881610ca5565b82525050565b61103781610c28565b82525050565b61104681610cd4565b82525050565b608082015f8201516110605f85018261101f565b506020820151611073602085018261101f565b506040820151611086604085018261102e565b506060820151611099606085018261103d565b50505050565b5f6110aa838361104c565b60808301905092915050565b5f602082019050919050565b5f6110cc82610ff6565b6110d68185611000565b93506110e183611010565b805f5b838110156111115781516110f8888261109f565b9750611103836110b6565b9250506001810190506110e4565b5085935050505092915050565b5f6020820190508181035f83015261113681846110c2565b905092915050565b5f81519050919050565b5f82825260208201905092915050565b5f819050602082019050919050565b5f82825260208201905092915050565b5f61118182610f5a565b61118b8185611167565b935061119b818560208601610f74565b6111a481610d8e565b840191505092915050565b5f606083015f8301518482035f8601526111c98282611177565b91505060208301516111de602086018261101f565b5060408301516111f1604086018261102e565b508091505092915050565b5f61120783836111af565b905092915050565b5f602082019050919050565b5f6112258261113e565b61122f8185611148565b93508360208202850161124185611158565b805f5b8581101561127c578484038952815161125d85826111fc565b94506112688361120f565b925060208a01995050600181019050611244565b50829750879550505050505092915050565b5f6020820190508181035f8301526112a6818461121b565b905092915050565b5f6020820190506112c15f830184610cdf565b92915050565b7f4f6e6c7920646f63746f72732063616e20706572666f726d20746869732061635f8201527f74696f6e00000000000000000000000000000000000000000000000000000000602082015250565b5f611321602483610f64565b915061132c826112c7565b604082019050919050565b5f6020820190508181035f83015261134e81611315565b9050919050565b7f4e487b71000000000000000000000000000000000000000000000000000000005f52602260045260245ffd5b5f600282049050600182168061139957607f821691505b6020821081036113ac576113ab611355565b5b50919050565b5f819050815f5260205f209050919050565b5f6020601f8301049050919050565b5f82821b905092915050565b5f6008830261140e7fffffffffffffffffffffffffffffffffffffffffffffffffffffffffffffffff826113d3565b61141886836113d3565b95508019841693508086168417925050509392505050565b5f819050919050565b5f61145361144e61144984610c28565b611430565b610c28565b9050919050565b5f819050919050565b61146c83611439565b6114806114788261145a565b8484546113df565b825550505050565b5f90565b611494611488565b61149f818484611463565b505050565b5b818110156114c2576114b75f8261148c565b6001810190506114a5565b5050565b601f821115611507576114d8816113b2565b6114e1846113c4565b810160208510156114f0578190505b6115046114fc856113c4565b8301826114a4565b50505b505050565b5f82821c905092915050565b5f6115275f198460080261150c565b1980831691505092915050565b5f61153f8383611518565b9150826002028217905092915050565b61155882610f5a565b67ffffffffffffffff81111561157157611570610d9e565b5b61157b8254611382565b6115868282856114c6565b5f60209050601f8311600181146115b7575f84156115a5578287015190505b6115af8582611534565b865550611616565b601f1984166115c5866113b2565b5f5b828110156115ec578489015182556001820191506020850194506020810190506115c7565b868310156116095784890151611605601f891682611518565b8355505b6001600288020188555050505b505050505050565b5f6040820190508181035f8301526116368185610f82565b90506116456020830184610cc5565b9392505050565b7f496e76616c696420646f63746f722061646472657373000000000000000000005f82015250565b5f611680601683610f64565b915061168b8261164c565b602082019050919050565b5f6020820190508181035f8301526116ad81611674565b9050919050565b5f6020820190506116c75f830184610cc5565b92915050565b7f4e487b71000000000000000000000000000000000000000000000000000000005f52603260045260245ffd5b7f4f6e6c79207468652061737369676e656420646f63746f722063616e20636f6e5f8201527f6669726d2074686973206170706f696e746d656e740000000000000000000000602082015250565b5f611754603583610f64565b915061175f826116fa565b604082019050919050565b5f6020820190508181035f83015261178181611748565b905091905056fea26469706673582212207d311caec924088ee891ba0c17c7dafc40de269a5109a93dc9bec03feed348e564736f6c634300081a0033",
  "immutableReferences": {},
  "source": "\r\n// SPDX-License-Identifier: MIT\r\npragma solidity ^0.8.0;\r\n\r\ncontract MedicalRecord {\r\n    struct Record {\r\n        string ipfsHash;\r\n        address doctor;\r\n        uint timestamp;\r\n    }\r\n\r\n    struct Appointment {\r\n        address patient;\r\n        address doctor;\r\n        uint timestamp;\r\n        bool confirmed;\r\n    }\r\n\r\n    mapping(address => Record[]) public patientRecords;\r\n    mapping(address => bool) public doctors;\r\n    Appointment[] public appointments;\r\n\r\n    event RecordAdded(address indexed patient, string ipfsHash, address indexed doctor, uint timestamp);\r\n    event AppointmentRequested(address indexed patient, address indexed doctor, uint timestamp);\r\n    event AppointmentConfirmed(uint indexed appointmentId);\r\n\r\n    modifier onlyDoctor() {\r\n        require(doctors[msg.sender] == true, \"Only doctors can perform this action\");\r\n        _;\r\n    }\r\n\r\n    function addDoctor(address _doctor) public {\r\n        doctors[_doctor] = true;\r\n    }\r\n\r\n    function addRecord(address _patient, string memory _ipfsHash) public onlyDoctor {\r\n        patientRecords[_patient].push(Record(_ipfsHash, msg.sender, block.timestamp));\r\n        emit RecordAdded(_patient, _ipfsHash, msg.sender, block.timestamp);\r\n    }\r\n\r\n    function getRecords(address _patient) public view returns (Record[] memory) {\r\n        return patientRecords[_patient];\r\n    }\r\n\r\n    function requestAppointment(address _doctor, uint _timestamp) public {\r\n        require(doctors[_doctor], \"Invalid doctor address\");\r\n        appointments.push(Appointment(msg.sender, _doctor, _timestamp, false));\r\n        emit AppointmentRequested(msg.sender, _doctor, _timestamp);\r\n    }\r\n\r\n    function confirmAppointment(uint _appointmentId) public onlyDoctor {\r\n        Appointment storage appointment = appointments[_appointmentId];\r\n        require(appointment.doctor == msg.sender, \"Only the assigned doctor can confirm this appointment\");\r\n        appointment.confirmed = true;\r\n        emit AppointmentConfirmed(_appointmentId);\r\n    }\r\n\r\n    function getAppointments() public view returns (Appointment[] memory) {\r\n        return appointments;\r\n    }\r\n}\r\n",
  "sourcePath": "D:\\TFG\\src\\contracts\\MedicalRecord.sol",
  "compiler": {
    "name": "solc",
    "version": "0.8.26+commit.8a97fa7a.Emscripten.clang"
  },
  "schemaVersion": "3.4.16",
  "updatedAt": "2024-06-07T01:50:39.784Z",
  "devdoc": {
    "kind": "dev",
    "methods": {},
    "version": 1
  },
  "userdoc": {
    "kind": "user",
    "methods": {},
    "version": 1
  }
}